:020000040040BA
:10000000201A40207D0240005D034000A908000046
:10001000E5080000C7024000C7024000C7024000D8
:10002000000000000000000000000000C7024000C7
:10003000C7024000000000000D080000990E4000BB
:10004000C50D4000A14F0000C7024000C70240009C
:10005000C7024000C7024000C7024000C70240007C
:10006000C7024000C7024000C702400061730000A1
:10007000C7024000C7024000C7024000015900000B
:10008000C7024000C7024000650A4000C7024000A6
:10009000C7024000C7024000C70240005D0B40009D
:1000A000C7024000C7024000C7024000C70240002C
:1000B000C7024000C7024000C7024000C70240001C
:1000C0000000000000000000000000000000000030
:1000D0000000000000000000000000000000000020
:1000E0000000000000000000000000000000000010
:1000F0000000000000000000000000000000000000
:100100000348044B834202D0034B03B118477047A6
:10011000201640202016402000000000064B074912
:10012000C91A891048BF0131491003D0044B0BB1E3
:1001300001481847704700BF201640202016402075
:100140000000000010B5064C237843B9FFF7D8FF34
:10015000044B13B10448AFF300800123237010BD9A
:10016000201A402000000000C815400008B5054BCB
:100170001BB105490548AFF30080BDE80840FFF713
:10018000CDBF00BF00000000241A4020C815400069
:100190007047704737B540F6B832084B084C9D6C35
:1001A0002368EB1A934206D900F02AF901A900F05E
:1001B00037F900B9256003B030BD00BF000004402E
:1001C0003C1A402007B50B4B93F8DB3073B10A4B58
:1001D0000A489A6C0A4B1A6055F492FD142000F0FC
:1001E00015F900F00DF901A900F01AF9002003B08B
:1001F0005DF804FB00FD4020000004409501400034
:100200003C1A40200020704708B501F4D1FE4FF0A1
:1002100080421369012123F0030343F001031361BA
:100220001369022043F010031361032202F48CF8D7
:10023000BDE80840FFF7ACBF7047000008B50B4AA7
:100240000B4B9A60D3F8882042F03F02C3F8882015
:10025000FFF7F2FF50F4BAF905F476FE00F0EDFC7A
:1002600051F436F8034B044A1A6008BD0000400000
:1002700000ED00E0E415402040787D01DFF848D033
:10028000124880F30A88FFF7D9FF114C114DAC4298
:1002900009DA21686268A368043BA2BFC858D0503D
:1002A000FAE70C34F3E70C4B0C4CA34208DA19685C
:1002B0005A680020043AA4BF8850FBE70833F4E7EB
:1002C00000F0CAFEFEE7FEE7201A4020201640207C
:1002D000DC154000DC154000DC154000E415400052
:1002E00000207047704708B5FFF78EFFFFF7FAFF51
:1002F00000F067FA032001F4FBFE002000F0C9FDC6
:10030000003818BF012008BD024A1368013313608A
:10031000704700BF401A4020034670B5B8B142F2A2
:1003200010754FF0E026AB4284BFA3F51C5442F297
:100330001073326998BF0024184688BF103CD30759
:1003400008D401F4C3FC2346002CECD101E001F4F5
:10035000BDFC70BD01F49CFCF5E7000008B5054B41
:100360001B695B0002D500F03DFC08BD00F034FDC8
:10037000FBE700BF00F00040114BF0B598421BD1E5
:10038000032A1BD100241C2707FB04F68D198E5964
:1003900000EBC4135E606E6801341E61EE68A24219
:1003A0009E622E699E636E695E64AE691E65AD686D
:1003B000DD61E9D80020F0BD022AE2E70120FAE77A
:1003C00000000A5007B50021022000F0ABF8002120
:1003D000019001A800F0C2F8003818BF0120404287
:1003E00003B05DF804FB07B50021022000F09AF885
:1003F0000021019001A800F0C3F803B05DF804FBF0
:10040000014B1878704700BFE815402018B1034B26
:100410001870002070474FF0FF307047E8154020FB
:1004200073B506460D4601F490FC00286DD1FFF728
:10043000C9FF00286CD1384C0120D4F814316FF377
:10044000DC4343F40023C4F81431D4F8143143F0EE
:100450000053C4F81431D4F8143123F48033C4F8B1
:100460001431D4F81431C4F81431D4F814316FF3C2
:100470000F03C4F81431D4F814311E43C4F81461C6
:10048000D4F8143143F40033C4F8143100F0F2FC12
:10049000D4F81831002BFBDA2048D4F81821016871
:1004A0001F4E22F0004271B3336893421DD2D41A1A
:1004B000FA2C23D9994221D9C91AFA291ED903EB5A
:1004C00043040D23083403FB024424090260042280
:1004D00002200DEB02013460019401F4E3FC2C6076
:1004E000FFF781FF002002B070BD07D99C1AC82C0D
:1004F00004D9994202D2591AC829DFE7C3EB031481
:1005000014440834E1E71446E0E74FF0FF30EAE72F
:100510006FF00200E7E700BF00000940481A4020E2
:10052000441A4020012808B508D103290ED80848EC
:1005300000E00848182303FB010008E0012905D862
:100540000228F6D0B021044800F0D2FC002008BDFB
:1005500000200850002000408412400008B538B147
:10056000006848B14069002808DB00F00F0008BDB2
:100570000220FFF7D7FFF4E70420F8E70020F6E7B2
:1005800008B530B1006818B1436943F000434361D6
:1005900008BD0220FFF7C6FFF5E770B50546002647
:1005A00003681C699C6004B970BDE30704D5AB689F
:1005B00013B12846F1B2984764080136F3E700000A
:1005C00010B5044618B915210C4800F091FC237DA4
:1005D000072B03D91621094800F08AFC2368227DE5
:1005E000103303EB0213A26863605A606368E26829
:1005F00000209A600123237610BD00BF0113400044
:10060000012210B5037D046802FA03F3B1B16168F9
:100610000B4343F4803363600468017DA3688A4020
:10062000134343EA0243A360C27C837D43EA02434F
:100630004268136002220276002010BDA16843EADE
:10064000034321EA0303A360F5E701230268007D69
:10065000516883400B4353607047000010B55AB196
:1006600051B123285DD047D80B283BD8E0B940F2E0
:100670002231414800F03CFC002051E05938072865
:10068000F5D801A454F820F0410740005907400074
:1006900061074000690740006F0640006F06400098
:1006A0006F06400071074000013800230A28DED899
:1006B00001A454F820F000BF530740006F0640002B
:1006C0006F0640004D0740006F064000470740009E
:1006D0006F0640006F0640006F0640003B07400079
:1006E0003507400016284FF000031FD02228BED146
:1006F0000B604FF4007310E06028B8D858284FF012
:100700000003BBD8382805D03A28B0D10B604FF48D
:10071000803302E00B604FF480734FF08040136031
:1007200010BD00230B604FF48063F6E70B604FF4BD
:100730000043F2E70B604023EFE70B602023ECE778
:100740000B601023E9E70B600823E6E70B60042346
:10075000E3E70B600223E0E70B604FF48013DCE774
:100760000B604FF40023D8E70B604FF48023D4E7ED
:100770000B608023D1E700BF3C13400007B56A46F9
:1007800001A9FFF76BFFB0F1804F01D1019B3BB195
:1007900040F62201094803B05DF804EB00F0A8BB65
:1007A000EFF31082012383F31088436800990B4311
:1007B000436082F3108803B05DF804FB3C134000F3
:1007C000704708B5FFF7FCFF08BD0000F8B5124EF2
:1007D000124B134C336020332360124A124B134FD9
:1007E0001A60134B134D3B6003F5E6732B60124BFD
:1007F00002F56B7211481A6005F428F939683068FF
:100800004FF4E67254F4F6F920684FF4E672296862
:1008100054F4F0F90020F8BDE8E6402000E0402064
:10082000ECE6402040E04020F0E64020F4E64020A6
:1008300050E04020F8E64020FCE640207D590000D2
:10084000044A054B1A60013A12680AB11B6818473E
:10085000704700BF016040004C1A402010B50120D5
:1008600000F046F951F448FE01F46FFA28B950F44B
:10087000F5FCFFF7C5FD50F4E5FC032050F4F2FC55
:1008800000240E230C4A0D491046C2E90744137593
:1008900053F4BEFB0A4855F433FA0A4853F496FC65
:1008A000FFF7CEFF00F0C2F801F47AFD204604F411
:1008B00035FB204610BD00BF501A4020DC1340001D
:1008C00055790100C9084000013008B501D0012068
:1008D00008BD17F435FA0028F9D10320F8E7000025
:1008E00008B5094B0246186A10F0200006D0074BE5
:1008F0009A4204D1012904D917F422FA08BD002034
:10090000FCE74FF0FF30F9E700000440501A4020A8
:1009100004F4A6BB08B501F443FD04F479FBBDE87B
:100920000840002000F0E4B810B548B1012809D013
:100930004FF407620449054850F410FD204610BDED
:100940000224FBE70624F9E7F41340008813400073
:10095000062238B50D4C02230125A2700322042083
:100960002370E2702371657050F436FC43881420C4
:10097000023BE37150F430FC43886571023B237203
:10098000A5712046BDE8384050F456BCD4EA40205A
:1009900000B5164A91B0537990795B0003F00203D9
:1009A00000F00100184350F443FC2822002106A85F
:1009B00000F060FC4FF400720D4B0621CDE90332CC
:1009C0000023CDE901314FF4277301224FF4805108
:1009D000009306A84FF400534FF47AFD06A804F4E0
:1009E0000BFB09F40FFA11B05DF804FBD4EA4020C8
:1009F00000FE402010B50020FFF796FF084B53F88B
:100A000020309847044628B940F6E31205490648C5
:100A100050F4A4FC2046BDE81040002150F434BC42
:100A2000CCFD0500E81340008A13400008B5FFF72D
:100A30008FFFFFF7ADFFFFF7DDFF08BD074BD3F8D2
:100A40009820C2F30B03120544BF83F47F6383F045
:100A50000F0313B1024A1268136070470040084048
:100A6000EC15402010B5074B1C6851F4F5FFA307A7
:100A700004D50548FFF7E9FDFFF7E0FFBDE81040AA
:100A800052F402B800C00040901A402070B51646DB
:100A90001C225043114D124A2C182A500122227553
:100AA000104A05201268E074A26000221220A1758D
:100AB0001146E260A674238201F4F8FA2046FFF79B
:100AC0007FFD28B140F25F120749084850F446FC08
:100AD0002046BDE870400121FFF792BD901A4020EA
:100AE00000C00040EC154020011440008D13400070
:100AF00010B528B10022084B1B681A605A601A8191
:100B00003820FFF73BFEBDE81040002369211A465C
:100B10001846FFF7BBBF00BFEC154020072910B5F2
:100B20000C4604D934220A490A4850F417FC0A4BEF
:100B30005A6AE240D20703D51CB9986A15F400FE40
:100B400010BD03EB8403986ABDE8104015F4DCBDCA
:100B50000C1440009613400098E4402008B551F46E
:100B60007BFF0348FFF719FDBDE8084051F48CBF37
:100B7000F015402008B5064A0648136943F00053B3
:100B8000136150F409FC044851F442FD002008BDF3
:100B900000F00040BD0B40009D0B400010B5064C1E
:100BA00023695B0006D4012001F424FA236943F091
:100BB00080532361012010BD00F0004010B5084CA7
:100BC00023695B000AD4012001F414FA236943F07D
:100BD00080532361BDE8104000F01EBB10BD00BF74
:100BE00000F0004008B551F437FF40F23B120449D1
:100BF000044850F4B3FBBDE8084051F445BF00BFC2
:100C00002C1440008813400070477047012908B534
:100C100001D8002008BD15F431FD08B90720F9E717
:100C200015F44AFD0028F9D0024B5A6A1B6A1A4291
:100C3000EFD0F3E700000440704708B500F06CFC0B
:100C400008BD0000014B1878704700BF54FD4020DC
:100C500010B50F4C236A9A0606D459F4CFFD236AC7
:100C60009B060BD4002010BD0A4B002BF5D0FFF7DC
:100C70004FFE0028F1D04FF0FF30F4E7064C236818
:100C8000002BEFD0FFF746FE00232360EAE700BF0A
:100C900000000440110940001C1B402010B5002238
:100CA000FC210C4854F4AEFC01200B4953F492FA99
:100CB0000A49002053F4ACF915F4DCFB084B094C4D
:100CC0009B6CA36055F48CFA0123E0602370002034
:100CD00010BD00BFFC1540206014400054144000BB
:100CE00000000440FC1A402070470000F8B52C4B6F
:100CF00019600239032905D8DFE801F04A410902E9
:100D0000FFF7F2FF274B5A6A274B1A603FE0092092
:100D100052F4C2FF04464568071DBD421DD1214E55
:100D2000FFF796FFB26C214B21489A6150F4B2FF55
:100D3000054618B10422012150F432FF736C1D489E
:100D400023F00103736400F4E9FF6468BC420CD132
:100D500015F434FE15F466FED4E7A5F10C00042268
:100D6000022150F41DFF2D68D7E7A4F10C00854245
:100D700003D00422012150F413FF2468E6E759F45C
:100D8000DBFB084B00289A6C084B9A61BADBF8BD74
:100D900059F41EFC034B9A6C044B9A61B2E700BFF6
:100DA000C0E840200000044058FD4020FC1A4020CC
:100DB000BD13400000000840014BD860704700BFE1
:100DC000FC1A402008B551F447FE00F40BFBBDE8C7
:100DD000084051F459BE704738B5184B1A682ABB01
:100DE0000124174D1C602B695A001FD4FFF7F3FF35
:100DF000204601F4FFF82B69204643F080532B6115
:100E0000104B114D4BF681342B6000F033F8342237
:100E10002B68DA602B685B699B0708D4012000F01F
:100E200029F8074A136843F00103136038BD013CF9
:100E3000F4D0012000F44AFFECE700BF201B402063
:100E400000F0004000B00040241B402010B5C26AF2
:100E5000816A043A04460A44054BD0E9080151F47A
:100E6000FDFBE061A16ABDE8104000F02DB900BFB4
:100E7000D15A050007B50190019B13B903B05DF885
:100E800004FB4FF47A70FFF747FA019B013B019393
:100E9000F2E700207047000070B5144D51F4DCFDFE
:100EA0006B6AFFF731FA55F49BF9EB6A04469B062F
:100EB00005D455F49DF9BDE8704051F4E5BDAD6C25
:100EC000461C01F4A7F801230246294630464FF498
:100ED00003FD8442EFD08642EBD055F489F955F4F6
:100EE00087F9A01CFFF768FFE5E700BF000004409A
:100EF000002307B540F22F2205490648019350F41C
:100F00002DFA019B002BFCD003B05DF804FB00BF61
:100F100068144000881340007047000008B5FFF7D0
:100F2000FBFFFFF7E0F9084854F440FFFFF731F901
:100F300051F4B2FB51F4FAFB0449054854F414FB94
:100F4000BDE8084000F00EB84D0E4000005C4020A7
:100F5000301D40200020704700207047002070475F
:100F60000020704738B5044C044DAC4200D338BD66
:100F700054F8043B9847F8E7A0154000A41540003A
:100F800038B5054C054DAC4200D338BD54F8043B90
:100F9000002BF8D09847F6E7A4154000C415400090
:100FA00013B502248DF8064054F450FF90F8353004
:100FB0008DF8073054F44AFF21460DF1060254F42F
:100FC00059FCFFF7DDFF54F441FF21460DF1070204
:100FD00054F450FCFFF716F902B010BD7047000042
:100FE0000223142213B50B49CDE900320A484FF40D
:100FF0008063002254F486FC044628B94FF4B3728F
:101000000649074850F4AAF9204602B0BDE810404E
:1010100054F4BABFA10F4000C1134000791440003E
:10102000C613400008B5FFF7D9F3FFF705FEFFF739
:1010300075FFFFF707FE08B954F4FBF954F410FCF0
:1010400054F4E4FBFFF7CCFF54F412FC00F01EF85C
:1010500054F4F2FB002008BD08B5FFF7BFFFFFF70F
:10106000E1FF002008BD000038B50024064D55F80A
:10107000043B03B198470134042CF8D154F4C2FD69
:1010800054F400FBF1E700BFECEF40201FB507234D
:101090002022CDE902324FF400730193064B074A38
:1010A000009307490023074854F444FE054805B05F
:1010B0005DF804EB54F468BF301B40206910400019
:1010C000D513400070EF402070470000EFF3108010
:1010D00072B6704780F31088704740BF5F4A13684C
:1010E000012B04D04FF0010313605D4A10605D4A8C
:1010F00011605D484FF0805101607047EFF310823E
:1011000072B656480168C9B14FF0000101605448F9
:10111000016849B1EFF3098121E9F00FEFF30B8486
:1011200041F8044D006801604E490968096810C91A
:1011300084F30B88B1E8F00F81F3098882F31088FB
:101140004EF0040E704749484FF47F01D0F800205C
:1011500041EA0201016070474249086040494FF08E
:10116000000008603D494FF0010008603F484FF41F
:101170007F01D0F8002041EA020101603A484FF0B7
:10118000805101603A480068006800BF80F3088819
:1011900061B662B6704700BF20BF7047EFF30880AA
:1011A0001EF0040F01D0EFF3098020E9F00FEFF3F8
:1011B0000B8440F8044D40F804ED1EF0040F02D0FB
:1011C00080F3098801E080F3088800B551F427FA1C
:1011D0005DF804EB4EF0040E7047EFF308801EF04C
:1011E000040F01D0EFF3098020E9F00FEFF30B8437
:1011F00040F8044D40F804ED1EF0040F02D080F3D7
:10120000098801E080F3088800B551F40BFA5DF815
:1012100004EB4EF0040E704710B4EFF3038410B4E7
:101220007C4600B500B54DF804CD0FB4089C2DE9FF
:10123000F00FEFF30B8410B4684651F4AFF910BC13
:1012400084F30B88BDE8F00F0FBC5DF804CB5DF8AC
:1012500004EB10BC10BC10BC70470000A4F8402088
:1012600074F8402078F8402004ED00E020ED00E024
:1012700008ED00E002440346934200D1704703F8B2
:10128000011BF9E7443A5C7869616F7A68695F73BA
:101290006633325C7869616F7A68692D73663332C0
:1012A0005C73646B5C647269766572735C68616CB4
:1012B0005C6266305F68616C5F6D61696C626F78FB
:1012C0002E6300443A5C7869616F7A68695F73667F
:1012D00033325C7869616F7A68692D736633325C8A
:1012E00073646B5C647269766572735C68616C5C74
:1012F0006266305F68616C5F70696E6D75782E63D1
:1013000000443A5C7869616F7A68695F736633326A
:101310005C7869616F7A68692D736633325C7364D7
:101320006B5C647269766572735C68616C5C626642
:10133000305F68616C5F7074632E6300443A5C7860
:1013400069616F7A68695F736633325C7869616F6F
:101350007A68692D736633325C73646B5C6472699E
:10136000766572735C68616C5C6266305F68616C44
:101370005F7263632E630063616C6C6261636B20F8
:10138000213D204E554C4C003000746C0052545F8F
:1013900046414C534500715F696478203C204950B8
:1013A000435F48575F51554555455F4E554D004881
:1013B000414C5F4F4B203D3D206572720070696E5D
:1013C000006D61696E0074696420213D2052545F94
:1013D0004E554C4C007469646C650000E108400097
:1013E0000000000000000000706F72745F636F6E99
:1013F00066696700726F6D5F706F72745F676574A6
:10140000007074635F636F6E666967006863707510
:10141000326C6370755F6E6F74696669636174695D
:101420006F6E5F63616C6C6261636B004442475F27
:10143000547269676765725F49525148616E646CA6
:10144000657200706D5F70696E5F726573746F7244
:10145000650000000D0C40000B0C40000000000077
:101460000A0000000300000048414C5F41737365AF
:1014700072744661696C65640072745F6170706C4F
:1014800069636174696F6E5F696E69740000000062
:1014900010B5044620B940F6B5010A48FFF728FD0B
:1014A0002268094B00201A6062685A60A2689A603C
:1014B000E268DA60226903F540439A636269DA639D
:1014C00010BD00BFC312400000300040704770479D
:1014D00008B50C48FFF7DCFF28B140F271120A4949
:1014E0000A484FF43BFF022209490A48FEF744FF2D
:1014F00038B1BDE8084040F27512034903484FF483
:101500002DBF08BDAC1A402043144000AF1340006B
:10151000C41A40200000084038B5164C236803F078
:101520000303032B144B02D000221A7038BD01258F
:101530001D7055F4E7FB114A136943F00053136122
:10154000636C23F002036364FFF7C2FF636C23F054
:1015500001036364FEF7C7FEFFF740F1084B1D600F
:10156000FEF717FE51F498F8FFF775F14FF486FB7C
:10157000DCE700BF0000044054FD402000F00040C4
:101580001C1B4020F8B500BFF8BC08BC9E46704745
:10159000F8B500BFF8BC08BC9E467047550F400028
:1015A000590F40005D0F40009D0C4000E1A6020075
:1015B000C5014000EDAC0500CD0740005D084000CE
:0C15C000750B4000610F400000000000AF
:1015CC00B0ECFF7FB0B0B0800CEDFF7F01000000ED
:0815DC00201A4020100300005A
:1015E400006CDC02C800000090270840002008506E
:1015F400000000001D0B4000ED0C4000CD14400025
:10160400DDAB0500F5AB0500CF144000090C40002C
:0C1614008DAB05006D0140004501400059
:04000005004010594E
:00000001FF
